{
  "_format": "hh-sol-artifact-1",
  "contractName": "TodoList",
  "sourceName": "contracts/TodoList.sol",
  "abi": [
    {
      "inputs": [
        {
          "internalType": "string",
          "name": "_name",
          "type": "string"
        }
      ],
      "stateMutability": "nonpayable",
      "type": "constructor"
    },
    {
      "anonymous": false,
      "inputs": [
        {
          "indexed": false,
          "internalType": "uint256",
          "name": "index",
          "type": "uint256"
        },
        {
          "indexed": false,
          "internalType": "bool",
          "name": "complete",
          "type": "bool"
        }
      ],
      "name": "TodoCompleted",
      "type": "event"
    },
    {
      "anonymous": false,
      "inputs": [
        {
          "indexed": false,
          "internalType": "uint256",
          "name": "index",
          "type": "uint256"
        },
        {
          "indexed": false,
          "internalType": "string",
          "name": "name",
          "type": "string"
        },
        {
          "indexed": false,
          "internalType": "bool",
          "name": "complete",
          "type": "bool"
        },
        {
          "indexed": false,
          "internalType": "address",
          "name": "owner",
          "type": "address"
        }
      ],
      "name": "TodoCreated",
      "type": "event"
    },
    {
      "inputs": [
        {
          "internalType": "string",
          "name": "_title",
          "type": "string"
        }
      ],
      "name": "createTodo",
      "outputs": [],
      "stateMutability": "nonpayable",
      "type": "function"
    },
    {
      "inputs": [],
      "name": "name",
      "outputs": [
        {
          "internalType": "string",
          "name": "",
          "type": "string"
        }
      ],
      "stateMutability": "view",
      "type": "function"
    },
    {
      "inputs": [
        {
          "internalType": "uint256",
          "name": "",
          "type": "uint256"
        }
      ],
      "name": "todoMapping",
      "outputs": [
        {
          "internalType": "uint256",
          "name": "index",
          "type": "uint256"
        },
        {
          "internalType": "string",
          "name": "name",
          "type": "string"
        },
        {
          "internalType": "bool",
          "name": "complete",
          "type": "bool"
        },
        {
          "internalType": "address",
          "name": "owner",
          "type": "address"
        }
      ],
      "stateMutability": "view",
      "type": "function"
    },
    {
      "inputs": [],
      "name": "totalItems",
      "outputs": [
        {
          "internalType": "uint256",
          "name": "",
          "type": "uint256"
        }
      ],
      "stateMutability": "view",
      "type": "function"
    },
    {
      "inputs": [
        {
          "internalType": "uint256",
          "name": "_index",
          "type": "uint256"
        }
      ],
      "name": "updateTodo",
      "outputs": [],
      "stateMutability": "nonpayable",
      "type": "function"
    }
  ],
  "bytecode": "0x60806040523480156200001157600080fd5b5060405162000d6438038062000d64833981810160405281019062000037919062000179565b80600090805190602001906200004f92919062000057565b5050620002ef565b82805462000065906200025b565b90600052602060002090601f016020900481019282620000895760008555620000d5565b82601f10620000a457805160ff1916838001178555620000d5565b82800160010185558215620000d5579182015b82811115620000d4578251825591602001919060010190620000b7565b5b509050620000e49190620000e8565b5090565b5b8082111562000103576000816000905550600101620000e9565b5090565b60006200011e6200011884620001f2565b620001be565b9050828152602081018484840111156200013757600080fd5b6200014484828562000225565b509392505050565b600082601f8301126200015e57600080fd5b81516200017084826020860162000107565b91505092915050565b6000602082840312156200018c57600080fd5b600082015167ffffffffffffffff811115620001a757600080fd5b620001b5848285016200014c565b91505092915050565b6000604051905081810181811067ffffffffffffffff82111715620001e857620001e7620002c0565b5b8060405250919050565b600067ffffffffffffffff82111562000210576200020f620002c0565b5b601f19601f8301169050602081019050919050565b60005b838110156200024557808201518184015260208101905062000228565b8381111562000255576000848401525b50505050565b600060028204905060018216806200027457607f821691505b602082108114156200028b576200028a62000291565b5b50919050565b7f4e487b7100000000000000000000000000000000000000000000000000000000600052602260045260246000fd5b7f4e487b7100000000000000000000000000000000000000000000000000000000600052604160045260246000fd5b610a6580620002ff6000396000f3fe608060405234801561001057600080fd5b50600436106100575760003560e01c806306fdde031461005c5780631600af031461007a5780632799276d146100ad57806361a41c08146100cb578063e34f1221146100e7575b600080fd5b610064610103565b6040516100719190610739565b60405180910390f35b610094600480360381019061008f91906106aa565b610191565b6040516100a4949392919061079f565b60405180910390f35b6100b5610276565b6040516100c2919061075b565b60405180910390f35b6100e560048036038101906100e091906106aa565b61027c565b005b61010160048036038101906100fc9190610669565b610410565b005b6000805461011090610948565b80601f016020809104026020016040519081016040528092919081815260200182805461013c90610948565b80156101895780601f1061015e57610100808354040283529160200191610189565b820191906000526020600020905b81548152906001019060200180831161016c57829003601f168201915b505050505081565b60026020528060005260406000206000915090508060000154908060010180546101ba90610948565b80601f01602080910402602001604051908101604052809291908181526020018280546101e690610948565b80156102335780601f1061020857610100808354040283529160200191610233565b820191906000526020600020905b81548152906001019060200180831161021657829003601f168201915b5050505050908060020160009054906101000a900460ff16908060020160019054906101000a900473ffffffffffffffffffffffffffffffffffffffff16905084565b60015481565b60015481111561028b57600080fd5b600060026000838152602001908152602001600020604051806080016040529081600082015481526020016001820180546102c590610948565b80601f01602080910402602001604051908101604052809291908181526020018280546102f190610948565b801561033e5780601f106103135761010080835404028352916020019161033e565b820191906000526020600020905b81548152906001019060200180831161032157829003601f168201915b505050505081526020016002820160009054906101000a900460ff161515151581526020016002820160019054906101000a900473ffffffffffffffffffffffffffffffffffffffff1673ffffffffffffffffffffffffffffffffffffffff1673ffffffffffffffffffffffffffffffffffffffff168152505090508060400151158160400190151590811515815250507fb84a3507a15618a089880b44621cbac93a5991ec03f5e02e0c0b70273f94e71c828260400151604051610404929190610776565b60405180910390a15050565b6001805461041e9190610868565b600181905550604051806080016040528060015481526020018281526020016000151581526020013373ffffffffffffffffffffffffffffffffffffffff1681525060026000600154815260200190815260200160002060008201518160000155602082015181600101908051906020019061049b929190610549565b5060408201518160020160006101000a81548160ff02191690831515021790555060608201518160020160016101000a81548173ffffffffffffffffffffffffffffffffffffffff021916908373ffffffffffffffffffffffffffffffffffffffff1602179055509050507fa89b5720fff6d45f6b1f07c5086d9c53d1df9cb51c67195924899e2176cfa7476001548260003360405161053e949392919061079f565b60405180910390a150565b82805461055590610948565b90600052602060002090601f01602090048101928261057757600085556105be565b82601f1061059057805160ff19168380011785556105be565b828001600101855582156105be579182015b828111156105bd5782518255916020019190600101906105a2565b5b5090506105cb91906105cf565b5090565b5b808211156105e85760008160009055506001016105d0565b5090565b60006105ff6105fa8461081c565b6107eb565b90508281526020810184848401111561061757600080fd5b610622848285610906565b509392505050565b600082601f83011261063b57600080fd5b813561064b8482602086016105ec565b91505092915050565b60008135905061066381610a18565b92915050565b60006020828403121561067b57600080fd5b600082013567ffffffffffffffff81111561069557600080fd5b6106a18482850161062a565b91505092915050565b6000602082840312156106bc57600080fd5b60006106ca84828501610654565b91505092915050565b6106dc816108be565b82525050565b6106eb816108d0565b82525050565b60006106fc8261084c565b6107068185610857565b9350610716818560208601610915565b61071f81610a07565b840191505092915050565b610733816108fc565b82525050565b6000602082019050818103600083015261075381846106f1565b905092915050565b6000602082019050610770600083018461072a565b92915050565b600060408201905061078b600083018561072a565b61079860208301846106e2565b9392505050565b60006080820190506107b4600083018761072a565b81810360208301526107c681866106f1565b90506107d560408301856106e2565b6107e260608301846106d3565b95945050505050565b6000604051905081810181811067ffffffffffffffff82111715610812576108116109d8565b5b8060405250919050565b600067ffffffffffffffff821115610837576108366109d8565b5b601f19601f8301169050602081019050919050565b600081519050919050565b600082825260208201905092915050565b6000610873826108fc565b915061087e836108fc565b9250827fffffffffffffffffffffffffffffffffffffffffffffffffffffffffffffffff038211156108b3576108b261097a565b5b828201905092915050565b60006108c9826108dc565b9050919050565b60008115159050919050565b600073ffffffffffffffffffffffffffffffffffffffff82169050919050565b6000819050919050565b82818337600083830152505050565b60005b83811015610933578082015181840152602081019050610918565b83811115610942576000848401525b50505050565b6000600282049050600182168061096057607f821691505b60208210811415610974576109736109a9565b5b50919050565b7f4e487b7100000000000000000000000000000000000000000000000000000000600052601160045260246000fd5b7f4e487b7100000000000000000000000000000000000000000000000000000000600052602260045260246000fd5b7f4e487b7100000000000000000000000000000000000000000000000000000000600052604160045260246000fd5b6000601f19601f8301169050919050565b610a21816108fc565b8114610a2c57600080fd5b5056fea2646970667358221220b94199f285149fbd220aeeea155e13e8c9b9abed3822e6dc98fae100a61dc3a164736f6c63430008000033",
  "linkReferences": {},
  "deployedLinkReferences": {}
}